:1000000012C019C018C017C016C015C014C013C044
:1000100012C011C010C00FC00EC00DC00CC00BC06C
:100020000AC009C008C011241FBECFE5D4E0DEBF5E
:10003000CDBF09D03FC0E4CF80E18AB986E880BD5A
:1000400083E389B9089584B3876084BBF5DF22E038
:1000500091E034E05F9BFECF8CB1813669F485B3CB
:10006000892785BB4FEF54E38CE0415050408040DE
:10007000E1F700C00000EECF823669F485B3822735
:1000800085BB4FEF54E38CE0415050408040E1F796
:1000900000C00000DFCF8336E9F685B3832785BB38
:1000A0004FEF54E38CE0415050408040E1F700C0F6
:0800B0000000D0CFF894FFCF4F
:00000001FF
